{
  "contractName": "company",
  "abi": [
    {
      "constant": true,
      "inputs": [],
      "name": "goalDate",
      "outputs": [
        {
          "name": "",
          "type": "uint256"
        }
      ],
      "payable": false,
      "stateMutability": "view",
      "type": "function",
      "signature": "0x1153679d"
    },
    {
      "constant": true,
      "inputs": [],
      "name": "goalBalance",
      "outputs": [
        {
          "name": "",
          "type": "uint256"
        }
      ],
      "payable": false,
      "stateMutability": "view",
      "type": "function",
      "signature": "0x123cff47"
    },
    {
      "constant": true,
      "inputs": [
        {
          "name": "",
          "type": "uint256"
        }
      ],
      "name": "InvestAddr",
      "outputs": [
        {
          "name": "",
          "type": "address"
        }
      ],
      "payable": false,
      "stateMutability": "view",
      "type": "function",
      "signature": "0x8ef3ddbc"
    },
    {
      "inputs": [
        {
          "name": "_id",
          "type": "string"
        },
        {
          "name": "_pwd",
          "type": "string"
        },
        {
          "name": "_goalDate",
          "type": "uint256"
        },
        {
          "name": "_goalBalance",
          "type": "uint256"
        }
      ],
      "payable": false,
      "stateMutability": "nonpayable",
      "type": "constructor",
      "signature": "constructor"
    },
    {
      "payable": true,
      "stateMutability": "payable",
      "type": "fallback"
    },
    {
      "anonymous": false,
      "inputs": [
        {
          "indexed": false,
          "name": "investerAddress",
          "type": "address"
        },
        {
          "indexed": false,
          "name": "fundValue",
          "type": "uint256"
        }
      ],
      "name": "setInvestorEvent",
      "type": "event",
      "signature": "0x3b9644f2c20fd38b172993304262c21ed8d64baff431749117b2ef3e745e97e8"
    },
    {
      "anonymous": false,
      "inputs": [
        {
          "indexed": false,
          "name": "refundAddr",
          "type": "address"
        },
        {
          "indexed": false,
          "name": "refundValue",
          "type": "uint256"
        }
      ],
      "name": "refundEvent",
      "type": "event",
      "signature": "0xcb1ed30c8a84603cc9cd35d8ffd0eb9298b137e6ade703816a297932f375f51d"
    },
    {
      "constant": true,
      "inputs": [],
      "name": "isGoal",
      "outputs": [
        {
          "name": "",
          "type": "bool"
        }
      ],
      "payable": false,
      "stateMutability": "view",
      "type": "function",
      "signature": "0xa7a7e4e8"
    },
    {
      "constant": false,
      "inputs": [
        {
          "name": "receiver",
          "type": "address"
        },
        {
          "name": "_amount",
          "type": "uint256"
        },
        {
          "name": "_id",
          "type": "string"
        },
        {
          "name": "_pwd",
          "type": "string"
        }
      ],
      "name": "transferTo",
      "outputs": [],
      "payable": false,
      "stateMutability": "nonpayable",
      "type": "function",
      "signature": "0x9285d7e6"
    },
    {
      "constant": true,
      "inputs": [],
      "name": "getBalance",
      "outputs": [
        {
          "name": "",
          "type": "uint256"
        }
      ],
      "payable": false,
      "stateMutability": "view",
      "type": "function",
      "signature": "0x12065fe0"
    },
    {
      "constant": true,
      "inputs": [],
      "name": "myAddr",
      "outputs": [
        {
          "name": "",
          "type": "address"
        }
      ],
      "payable": false,
      "stateMutability": "view",
      "type": "function",
      "signature": "0xe665b266"
    },
    {
      "constant": false,
      "inputs": [],
      "name": "refundTo",
      "outputs": [],
      "payable": true,
      "stateMutability": "payable",
      "type": "function",
      "signature": "0x9aa8becd"
    },
    {
      "constant": false,
      "inputs": [],
      "name": "setInvestor",
      "outputs": [],
      "payable": true,
      "stateMutability": "payable",
      "type": "function",
      "signature": "0x30d5a628"
    }
  ],
  "bytecode": "0x608060405234801561001057600080fd5b50604051610a7f380380610a7f83398101806040528101908080518201929190602001805182019291906020018051906020019092919080519060200190929190505050336000806101000a81548173ffffffffffffffffffffffffffffffffffffffff021916908373ffffffffffffffffffffffffffffffffffffffff16021790555083600190805190602001906100aa92919061012f565b50826040518082805190602001908083835b6020831015156100e157805182526020820191506020810190506020830392506100bc565b6001836020036101000a0380198251168184511680821785525050505050509050019150506040518091039020600281600019169055508160048190555080600381905550505050506101d4565b828054600181600116156101000203166002900490600052602060002090601f016020900481019282601f1061017057805160ff191683800117855561019e565b8280016001018555821561019e579182015b8281111561019d578251825591602001919060010190610182565b5b5090506101ab91906101af565b5090565b6101d191905b808211156101cd5760008160009055506001016101b5565b5090565b90565b61089c806101e36000396000f300608060405260043610610099576000357c0100000000000000000000000000000000000000000000000000000000900463ffffffff1680631153679d1461009b57806312065fe0146100c6578063123cff47146100f157806330d5a6281461011c5780638ef3ddbc146101265780639285d7e6146101935780639aa8becd1461026c578063a7a7e4e814610276578063e665b266146102a5575b005b3480156100a757600080fd5b506100b06102fc565b6040518082815260200191505060405180910390f35b3480156100d257600080fd5b506100db610302565b6040518082815260200191505060405180910390f35b3480156100fd57600080fd5b50610106610321565b6040518082815260200191505060405180910390f35b610124610327565b005b34801561013257600080fd5b5061015160048036038101908080359060200190929190505050610447565b604051808273ffffffffffffffffffffffffffffffffffffffff1673ffffffffffffffffffffffffffffffffffffffff16815260200191505060405180910390f35b34801561019f57600080fd5b5061026a600480360381019080803573ffffffffffffffffffffffffffffffffffffffff16906020019092919080359060200190929190803590602001908201803590602001908080601f0160208091040260200160405190810160405280939291908181526020018383808284378201915050505050509192919290803590602001908201803590602001908080601f0160208091040260200160405190810160405280939291908181526020018383808284378201915050505050509192919290505050610485565b005b610274610555565b005b34801561028257600080fd5b5061028b6106e0565b604051808215151515815260200191505060405180910390f35b3480156102b157600080fd5b506102ba610711565b604051808273ffffffffffffffffffffffffffffffffffffffff1673ffffffffffffffffffffffffffffffffffffffff16815260200191505060405180910390f35b60045481565b60003073ffffffffffffffffffffffffffffffffffffffff1631905090565b60035481565b34600660003373ffffffffffffffffffffffffffffffffffffffff1673ffffffffffffffffffffffffffffffffffffffff1681526020019081526020016000206000828254019250508190555060073390806001815401808255809150509060018203906000526020600020016000909192909190916101000a81548173ffffffffffffffffffffffffffffffffffffffff021916908373ffffffffffffffffffffffffffffffffffffffff160217905550507f3b9644f2c20fd38b172993304262c21ed8d64baff431749117b2ef3e745e97e83334604051808373ffffffffffffffffffffffffffffffffffffffff1673ffffffffffffffffffffffffffffffffffffffff1681526020018281526020019250505060405180910390a1565b60078181548110151561045657fe5b906000526020600020016000915054906101000a900473ffffffffffffffffffffffffffffffffffffffff1681565b6000809054906101000a900473ffffffffffffffffffffffffffffffffffffffff1673ffffffffffffffffffffffffffffffffffffffff163373ffffffffffffffffffffffffffffffffffffffff161415156104e057600080fd5b6104ea8282610719565b15156104f557600080fd5b6104fd6106e0565b151561050857600080fd5b8373ffffffffffffffffffffffffffffffffffffffff166108fc849081150290604051600060405180830381858888f1935050505015801561054e573d6000803e3d6000fd5b5050505050565b60008060008090505b6007805490508110156106db5760078181548110151561057a57fe5b9060005260206000200160009054906101000a900473ffffffffffffffffffffffffffffffffffffffff1673ffffffffffffffffffffffffffffffffffffffff166108fc600660006007858154811015156105d157fe5b9060005260206000200160009054906101000a900473ffffffffffffffffffffffffffffffffffffffff1673ffffffffffffffffffffffffffffffffffffffff1673ffffffffffffffffffffffffffffffffffffffff168152602001908152602001600020549081150290604051600060405180830381858888f19350505050158015610662573d6000803e3d6000fd5b507fcb1ed30c8a84603cc9cd35d8ffd0eb9298b137e6ade703816a297932f375f51d8383604051808373ffffffffffffffffffffffffffffffffffffffff1673ffffffffffffffffffffffffffffffffffffffff1681526020018281526020019250505060405180910390a1808060010191505061055e565b505050565b60004260045410801561070c57506003543073ffffffffffffffffffffffffffffffffffffffff163110155b905090565b600030905090565b6000826040518082805190602001908083835b602083101515610751578051825260208201915060208101905060208303925061072c565b6001836020036101000a038019825116818451168082178552505050505050905001915050604051809103902060001916600160405180828054600181600116156101000203166002900480156107df5780601f106107bd5761010080835404028352918201916107df565b820191906000526020600020905b8154815290600101906020018083116107cb575b5050915050604051809103902060001916148015610868575060025460001916826040518082805190602001908083835b6020831015156108355780518252602082019150602081019050602083039250610810565b6001836020036101000a038019825116818451168082178552505050505050905001915050604051809103902060001916145b9050929150505600a165627a7a72305820741113d1d9e660977e574c9b79ba941d30a1d9fa1532398ff9b864fe57d81dcd0029",
  "source": "\n\n// 1546268400\npragma solidity ^0.4.2;\n\ncontract company {\n    \n    address platForm;\n    string  id;\n    bytes32 hash;       // hash(pwd)\n    uint256 public goalBalance ;\n    uint public goalDate;\n    uint start;\n    mapping(address=>uint) Outlog;\n    address[] public InvestAddr;\n    \n\n    event setInvestorEvent(address investerAddress, uint256 fundValue);\n    event refundEvent(address refundAddr, uint256 refundValue);\n\n    //initializaion\n   constructor (string _id, string  _pwd, uint _goalDate,uint _goalBalance) public  {\n        platForm = msg.sender;\n        id = _id;\n        hash = keccak256(bytes(_pwd));\n        goalDate = _goalDate;\n        goalBalance = _goalBalance;\n        \n    }\n    \n    function() payable public  {\n    }\n  \n    function isOwner(string _id, string _pwd) view private returns (bool){\n        return (keccak256(bytes(id)) == keccak256(bytes(_id)) && keccak256(bytes(_pwd)) ==  hash);\n    }\n    \n    function isGoal() view public returns (bool){\n        return (goalDate < now && address(this).balance >= goalBalance) ;\n    }\n\n    function transferTo(address receiver, uint256 _amount,string _id, string _pwd ) public  { \n        require(msg.sender == platForm);\n        require(isOwner(_id, _pwd));\n        require(isGoal());\n        \n        receiver.transfer(_amount);\n        //Outlog[receiver] += _amount;\n    }\n\n    \n    function getBalance() view public returns(uint256) {\n        return address(this).balance;\n    }\n    function myAddr() view public returns(address){\n        return address(this);\n    }\n   \n    // someone must call. \n    function refundTo () public payable{\n        //require(!isGoal());\n        address localAddr ;\n        uint256 localAmount;\n        for(uint256 i = 0 ; i < InvestAddr.length ; i++){\n            InvestAddr[i].transfer(Outlog[InvestAddr[i]]);\n            \n            //investor ref = investor(localAddr);\n            //ref.getRefund.value(localAmount);\n            emit refundEvent(localAddr,localAmount);\n        }\n    }\n\n    \n    function setInvestor() public payable {\n        Outlog[msg.sender] += msg.value;\n        InvestAddr.push(msg.sender);\n        emit setInvestorEvent(msg.sender, msg.value);\n        \n    }\n}\n\n//contract investor{\n//    function getRefund() public payable {}\n//}\n\n\n\n\n",
  "sourcePath": "/home/ubuntu/ethereumtest/contracts/company.sol",
  "compiler": {
    "name": "solc",
    "version": "0.4.25+commit.59dbf8f1.Emscripten.clang"
  },
  "schemaVersion": "3.0.2",
  "updatedAt": "2019-03-23T10:24:29.316Z",
  "devdoc": {
    "methods": {}
  },
  "userdoc": {
    "methods": {}
  }
}