{
  "contractName": "company",
  "abi": [
    {
      "constant": true,
      "inputs": [],
      "name": "goalDate",
      "outputs": [
        {
          "name": "",
          "type": "uint256"
        }
      ],
      "payable": false,
      "stateMutability": "view",
      "type": "function",
      "signature": "0x1153679d"
    },
    {
      "constant": true,
      "inputs": [],
      "name": "goalBalance",
      "outputs": [
        {
          "name": "",
          "type": "uint256"
        }
      ],
      "payable": false,
      "stateMutability": "view",
      "type": "function",
      "signature": "0x123cff47"
    },
    {
      "constant": true,
      "inputs": [
        {
          "name": "",
          "type": "address"
        }
      ],
      "name": "Outlog",
      "outputs": [
        {
          "name": "",
          "type": "uint256"
        }
      ],
      "payable": false,
      "stateMutability": "view",
      "type": "function",
      "signature": "0x57dd67a4"
    },
    {
      "constant": true,
      "inputs": [
        {
          "name": "",
          "type": "uint256"
        }
      ],
      "name": "InvestAddr",
      "outputs": [
        {
          "name": "",
          "type": "address"
        }
      ],
      "payable": false,
      "stateMutability": "view",
      "type": "function",
      "signature": "0x8ef3ddbc"
    },
    {
      "inputs": [
        {
          "name": "_id",
          "type": "string"
        },
        {
          "name": "_pwd",
          "type": "string"
        },
        {
          "name": "_goalDate",
          "type": "uint256"
        },
        {
          "name": "_goalBalance",
          "type": "uint256"
        }
      ],
      "payable": false,
      "stateMutability": "nonpayable",
      "type": "constructor",
      "signature": "constructor"
    },
    {
      "payable": true,
      "stateMutability": "payable",
      "type": "fallback"
    },
    {
      "anonymous": false,
      "inputs": [
        {
          "indexed": false,
          "name": "investerAddress",
          "type": "address"
        },
        {
          "indexed": false,
          "name": "fundValue",
          "type": "uint256"
        }
      ],
      "name": "setInvestorEvent",
      "type": "event",
      "signature": "0x3b9644f2c20fd38b172993304262c21ed8d64baff431749117b2ef3e745e97e8"
    },
    {
      "anonymous": false,
      "inputs": [
        {
          "indexed": false,
          "name": "refundAddr",
          "type": "address"
        },
        {
          "indexed": false,
          "name": "refundValue",
          "type": "uint256"
        }
      ],
      "name": "refundEvent",
      "type": "event",
      "signature": "0xcb1ed30c8a84603cc9cd35d8ffd0eb9298b137e6ade703816a297932f375f51d"
    },
    {
      "anonymous": false,
      "inputs": [],
      "name": "transferEvent",
      "type": "event",
      "signature": "0x4265c7511d760f21fcc224627c2c6ae73065f6fec6e8b2d78bcd6bbed3414af1"
    },
    {
      "constant": true,
      "inputs": [],
      "name": "isGoal",
      "outputs": [
        {
          "name": "",
          "type": "bool"
        }
      ],
      "payable": false,
      "stateMutability": "view",
      "type": "function",
      "signature": "0xa7a7e4e8"
    },
    {
      "constant": true,
      "inputs": [],
      "name": "getGoalBalance",
      "outputs": [
        {
          "name": "",
          "type": "uint256"
        }
      ],
      "payable": false,
      "stateMutability": "view",
      "type": "function",
      "signature": "0xa533cb68"
    },
    {
      "constant": true,
      "inputs": [],
      "name": "getGoalDate",
      "outputs": [
        {
          "name": "",
          "type": "uint256"
        }
      ],
      "payable": false,
      "stateMutability": "view",
      "type": "function",
      "signature": "0x80d8e910"
    },
    {
      "constant": false,
      "inputs": [
        {
          "name": "receiver",
          "type": "address"
        },
        {
          "name": "_amount",
          "type": "uint256"
        }
      ],
      "name": "transferTo",
      "outputs": [],
      "payable": true,
      "stateMutability": "payable",
      "type": "function",
      "signature": "0x2ccb1b30"
    },
    {
      "constant": true,
      "inputs": [],
      "name": "getBalance",
      "outputs": [
        {
          "name": "",
          "type": "uint256"
        }
      ],
      "payable": false,
      "stateMutability": "view",
      "type": "function",
      "signature": "0x12065fe0"
    },
    {
      "constant": false,
      "inputs": [],
      "name": "refundTo",
      "outputs": [],
      "payable": true,
      "stateMutability": "payable",
      "type": "function",
      "signature": "0x9aa8becd"
    },
    {
      "constant": false,
      "inputs": [],
      "name": "setInvestor",
      "outputs": [],
      "payable": true,
      "stateMutability": "payable",
      "type": "function",
      "signature": "0x30d5a628"
    }
  ],
  "bytecode": "0x608060405234801561001057600080fd5b5060405161096538038061096583398101806040528101908080518201929190602001805182019291906020018051906020019092919080519060200190929190505050336000806101000a81548173ffffffffffffffffffffffffffffffffffffffff021916908373ffffffffffffffffffffffffffffffffffffffff16021790555083600190805190602001906100aa92919061012f565b50826040518082805190602001908083835b6020831015156100e157805182526020820191506020810190506020830392506100bc565b6001836020036101000a0380198251168184511680821785525050505050509050019150506040518091039020600281600019169055508160048190555080600381905550505050506101d4565b828054600181600116156101000203166002900490600052602060002090601f016020900481019282601f1061017057805160ff191683800117855561019e565b8280016001018555821561019e579182015b8281111561019d578251825591602001919060010190610182565b5b5090506101ab91906101af565b5090565b6101d191905b808211156101cd5760008160009055506001016101b5565b5090565b90565b610782806101e36000396000f3006080604052600436106100af576000357c0100000000000000000000000000000000000000000000000000000000900463ffffffff1680631153679d146100b957806312065fe0146100e4578063123cff471461010f5780632ccb1b301461013a57806330d5a6281461017a57806357dd67a41461018457806380d8e910146101db5780638ef3ddbc146102065780639aa8becd14610273578063a533cb681461027d578063a7a7e4e8146102a8575b6100b76102d7565b005b3480156100c557600080fd5b506100ce61049e565b6040518082815260200191505060405180910390f35b3480156100f057600080fd5b506100f96104a4565b6040518082815260200191505060405180910390f35b34801561011b57600080fd5b506101246104c3565b6040518082815260200191505060405180910390f35b610178600480360381019080803573ffffffffffffffffffffffffffffffffffffffff169060200190929190803590602001909291905050506104c9565b005b61018261059b565b005b34801561019057600080fd5b506101c5600480360381019080803573ffffffffffffffffffffffffffffffffffffffff1690602001909291905050506106bb565b6040518082815260200191505060405180910390f35b3480156101e757600080fd5b506101f06106d3565b6040518082815260200191505060405180910390f35b34801561021257600080fd5b50610231600480360381019080803590602001909291905050506106dd565b604051808273ffffffffffffffffffffffffffffffffffffffff1673ffffffffffffffffffffffffffffffffffffffff16815260200191505060405180910390f35b61027b6102d7565b005b34801561028957600080fd5b5061029261071b565b6040518082815260200191505060405180910390f35b3480156102b457600080fd5b506102bd610725565b604051808215151515815260200191505060405180910390f35b600080600080600091505b600680549050821015610498576006828154811015156102fe57fe5b9060005260206000200160009054906101000a900473ffffffffffffffffffffffffffffffffffffffff1690508073ffffffffffffffffffffffffffffffffffffffff1663590e1ae36005600060068681548110151561035a57fe5b9060005260206000200160009054906101000a900473ffffffffffffffffffffffffffffffffffffffff1673ffffffffffffffffffffffffffffffffffffffff1673ffffffffffffffffffffffffffffffffffffffff168152602001908152602001600020546040518263ffffffff167c01000000000000000000000000000000000000000000000000000000000281526004016000604051808303818588803b15801561040757600080fd5b505af115801561041b573d6000803e3d6000fd5b50505050507fcb1ed30c8a84603cc9cd35d8ffd0eb9298b137e6ade703816a297932f375f51d8484604051808373ffffffffffffffffffffffffffffffffffffffff1673ffffffffffffffffffffffffffffffffffffffff1681526020018281526020019250505060405180910390a181806001019250506102e2565b50505050565b60045481565b60003073ffffffffffffffffffffffffffffffffffffffff1631905090565b60035481565b6000809054906101000a900473ffffffffffffffffffffffffffffffffffffffff1673ffffffffffffffffffffffffffffffffffffffff163373ffffffffffffffffffffffffffffffffffffffff1614151561052457600080fd5b8173ffffffffffffffffffffffffffffffffffffffff166108fc829081150290604051600060405180830381858888f1935050505015801561056a573d6000803e3d6000fd5b507f4265c7511d760f21fcc224627c2c6ae73065f6fec6e8b2d78bcd6bbed3414af160405160405180910390a15050565b34600560003373ffffffffffffffffffffffffffffffffffffffff1673ffffffffffffffffffffffffffffffffffffffff1681526020019081526020016000206000828254019250508190555060063390806001815401808255809150509060018203906000526020600020016000909192909190916101000a81548173ffffffffffffffffffffffffffffffffffffffff021916908373ffffffffffffffffffffffffffffffffffffffff160217905550507f3b9644f2c20fd38b172993304262c21ed8d64baff431749117b2ef3e745e97e83334604051808373ffffffffffffffffffffffffffffffffffffffff1673ffffffffffffffffffffffffffffffffffffffff1681526020018281526020019250505060405180910390a1565b60056020528060005260406000206000915090505481565b6000600454905090565b6006818154811015156106ec57fe5b906000526020600020016000915054906101000a900473ffffffffffffffffffffffffffffffffffffffff1681565b6000600354905090565b60004260045410801561075157506003543073ffffffffffffffffffffffffffffffffffffffff163110155b9050905600a165627a7a72305820b241c8548eb8045f51703f523343943747a3d4451949df02e049a991eb77c74d0029",
  "source": "pragma solidity ^0.4.2;\n\ncontract company {\n    \n    address platForm;\n    string  id;\n    bytes32 hash;       // hash(pwd)\n    uint public goalBalance ;\n    uint public goalDate;\n    mapping(address=>uint) public Outlog;\n    address[] public InvestAddr;\n    \n    event setInvestorEvent(address investerAddress, uint256 fundValue);\n    event refundEvent(address refundAddr, uint256 refundValue);\n    event transferEvent();\n    \n    //initializaion\n   constructor (string memory _id, string memory _pwd, uint _goalDate,uint _goalBalance) public  {\n        platForm = msg.sender;\n        id = _id;\n        hash = keccak256(bytes(_pwd));\n        goalDate = _goalDate;\n        goalBalance = _goalBalance;\n        \n    }\n    \n    function() payable external  {\n        refundTo();\n    }\n  \n    function isOwner(string memory _id, string memory _pwd) view private returns (bool){\n        return (keccak256(bytes(id)) == keccak256(bytes(_id)) && keccak256(bytes(_pwd)) ==  hash);\n    }\n    \n    function isGoal() view public returns (bool){\n        return (goalDate < now && address(this).balance >= goalBalance) ;\n    }\n    function getGoalBalance() view public returns(uint256){\n        return goalBalance;\n    }\n    function getGoalDate() view public returns(uint){\n        return goalDate;\n    }\n    \n    function transferTo (address receiver, uint256 _amount ) public payable { \n        require(msg.sender == platForm);\n        //require(isOwner(_id, _pwd));\n        //require(isGoal());\n        receiver.transfer(_amount);\n        emit transferEvent();\n    }\n\n    \n    function getBalance() view public returns(uint256) {\n        return address(this).balance;\n    }\n   \n    // someone must call. \n    function refundTo() public payable{\n        //require(!isGoal());\n        address localAddr ;\n        uint256 localAmount;\n        for(uint256 i = 0 ; i < InvestAddr.length ; i++){\n            //InvestAddr[i].transfer(Outlog[InvestAddr[i]]);\n            //investor ref = investor(localAddr);\n            //ref.getRefund.value(localAmount);\n            \n            investor invest = investor(InvestAddr[i]);\n            invest.refund.value(Outlog[InvestAddr[i]])();\n            emit refundEvent(localAddr,localAmount);\n        }\n    }\n    \n    // only investor contract can call this function.  \n    function setInvestor() public payable {\n        Outlog[msg.sender] += msg.value;\n        InvestAddr.push(msg.sender);\n        emit setInvestorEvent(msg.sender, msg.value);\n        \n    } \n}\n\n\n\ncontract investor {\n    \n    address platForm;  // platform account address\n    string public id;\n    bytes32 hash;       // hash(pwd)\n    mapping(address=>uint) log; \n    \n    event Funded(address receiver, uint256 _amount);\n    event Tranfered(address receiver, uint256 _amount);\n    event ref(uint256 _amount);\n    //initializaion\n    constructor (string memory _id, string memory _pwd) public payable {\n        platForm = msg.sender;\n        id = _id;\n        hash = keccak256(bytes(_pwd));\n    }\n    \n    function() payable external {\n    }\n    \n    function isOwner(string memory _id, string memory _pwd) view public returns (bool){\n        return (keccak256(bytes(id)) == keccak256(bytes(_id)) && keccak256(bytes(_pwd)) == hash);\n    }\n  \n    function transferToC(address receiver, uint256 _amount,string memory _id, string memory _pwd ) public { \n        require(msg.sender == platForm);\n        require(isOwner(_id, _pwd));\n        log[receiver] += _amount;\n        company setAddr = company(receiver);\n        setAddr.setInvestor.value(_amount)();\n        emit Funded (receiver, _amount);\n    }\n    \n    function transferToA(address receiver, uint256 _amount,string memory _id, string memory _pwd ) public { \n        require(msg.sender == platForm);\n        require(isOwner(_id, _pwd));\n        receiver.transfer(_amount);\n        log[receiver] += _amount;\n        emit Tranfered (receiver, _amount);\n        \n    }\n    \n    function getBalance() view public returns(uint256) {\n        //require(isOwner(_isOwner));\n        return address(this).balance;\n    }\n    \n    function myAddr() view public returns(address){\n        return address(this);\n    }\n    function refund() public payable{\n        emit ref(msg.value);\n    }\n}\n\n\n\n",
  "sourcePath": "/home/ubuntu/ethereumtest/contracts/contracts.sol",
  "compiler": {
    "name": "solc",
    "version": "0.4.25+commit.59dbf8f1.Emscripten.clang"
  },
  "schemaVersion": "3.0.2",
  "updatedAt": "2019-05-14T16:46:48.612Z",
  "devdoc": {
    "methods": {}
  },
  "userdoc": {
    "methods": {}
  }
}