{
  "contractName": "company",
  "abi": [
    {
      "constant": true,
      "inputs": [],
      "name": "goalDate",
      "outputs": [
        {
          "name": "",
          "type": "uint256"
        }
      ],
      "payable": false,
      "stateMutability": "view",
      "type": "function",
      "signature": "0x1153679d"
    },
    {
      "constant": true,
      "inputs": [],
      "name": "goalBalance",
      "outputs": [
        {
          "name": "",
          "type": "uint256"
        }
      ],
      "payable": false,
      "stateMutability": "view",
      "type": "function",
      "signature": "0x123cff47"
    },
    {
      "inputs": [
        {
          "name": "_id",
          "type": "string"
        },
        {
          "name": "_pwd",
          "type": "string"
        },
        {
          "name": "_goalDate",
          "type": "uint256"
        },
        {
          "name": "_goalBalance",
          "type": "uint256"
        }
      ],
      "payable": false,
      "stateMutability": "nonpayable",
      "type": "constructor",
      "signature": "constructor"
    },
    {
      "payable": true,
      "stateMutability": "payable",
      "type": "fallback"
    },
    {
      "anonymous": false,
      "inputs": [
        {
          "indexed": false,
          "name": "investerAddress",
          "type": "address"
        },
        {
          "indexed": false,
          "name": "fundValue",
          "type": "uint256"
        }
      ],
      "name": "setInvestorEvent",
      "type": "event",
      "signature": "0x3b9644f2c20fd38b172993304262c21ed8d64baff431749117b2ef3e745e97e8"
    },
    {
      "anonymous": false,
      "inputs": [],
      "name": "transferEvent",
      "type": "event",
      "signature": "0x4265c7511d760f21fcc224627c2c6ae73065f6fec6e8b2d78bcd6bbed3414af1"
    },
    {
      "constant": true,
      "inputs": [],
      "name": "isGoal",
      "outputs": [
        {
          "name": "",
          "type": "bool"
        }
      ],
      "payable": false,
      "stateMutability": "view",
      "type": "function",
      "signature": "0xa7a7e4e8"
    },
    {
      "constant": true,
      "inputs": [],
      "name": "getGoalBalance",
      "outputs": [
        {
          "name": "",
          "type": "uint256"
        }
      ],
      "payable": false,
      "stateMutability": "view",
      "type": "function",
      "signature": "0xa533cb68"
    },
    {
      "constant": true,
      "inputs": [],
      "name": "getGoalDate",
      "outputs": [
        {
          "name": "",
          "type": "uint256"
        }
      ],
      "payable": false,
      "stateMutability": "view",
      "type": "function",
      "signature": "0x80d8e910"
    },
    {
      "constant": false,
      "inputs": [
        {
          "name": "receiver",
          "type": "address"
        },
        {
          "name": "_amount",
          "type": "uint256"
        }
      ],
      "name": "transferTo",
      "outputs": [],
      "payable": true,
      "stateMutability": "payable",
      "type": "function",
      "signature": "0x2ccb1b30"
    },
    {
      "constant": true,
      "inputs": [],
      "name": "getBalance",
      "outputs": [
        {
          "name": "",
          "type": "uint256"
        }
      ],
      "payable": false,
      "stateMutability": "view",
      "type": "function",
      "signature": "0x12065fe0"
    },
    {
      "constant": false,
      "inputs": [],
      "name": "setInvestor",
      "outputs": [],
      "payable": true,
      "stateMutability": "payable",
      "type": "function",
      "signature": "0x30d5a628"
    }
  ],
  "bytecode": "0x608060405234801561001057600080fd5b506040516104d73803806104d783398101806040528101908080518201929190602001805182019291906020018051906020019092919080519060200190929190505050836000908051906020019061006a9291906100ef565b50826040518082805190602001908083835b6020831015156100a1578051825260208201915060208101905060208303925061007c565b6001836020036101000a038019825116818451168082178552505050505050905001915050604051809103902060018160001916905550816003819055508060028190555050505050610194565b828054600181600116156101000203166002900490600052602060002090601f016020900481019282601f1061013057805160ff191683800117855561015e565b8280016001018555821561015e579182015b8281111561015d578251825591602001919060010190610142565b5b50905061016b919061016f565b5090565b61019191905b8082111561018d576000816000905550600101610175565b5090565b90565b610334806101a36000396000f30060806040526004361061008e576000357c0100000000000000000000000000000000000000000000000000000000900463ffffffff1680631153679d1461009057806312065fe0146100bb578063123cff47146100e65780632ccb1b301461011157806330d5a6281461015157806380d8e9101461015b578063a533cb6814610186578063a7a7e4e8146101b1575b005b34801561009c57600080fd5b506100a56101e0565b6040518082815260200191505060405180910390f35b3480156100c757600080fd5b506100d06101e6565b6040518082815260200191505060405180910390f35b3480156100f257600080fd5b506100fb610205565b6040518082815260200191505060405180910390f35b61014f600480360381019080803573ffffffffffffffffffffffffffffffffffffffff1690602001909291908035906020019092919050505061020b565b005b610159610256565b005b34801561016757600080fd5b506101706102c3565b6040518082815260200191505060405180910390f35b34801561019257600080fd5b5061019b6102cd565b6040518082815260200191505060405180910390f35b3480156101bd57600080fd5b506101c66102d7565b604051808215151515815260200191505060405180910390f35b60035481565b60003073ffffffffffffffffffffffffffffffffffffffff1631905090565b60025481565b8173ffffffffffffffffffffffffffffffffffffffff166108fc829081150290604051600060405180830381858888f19350505050158015610251573d6000803e3d6000fd5b505050565b7f3b9644f2c20fd38b172993304262c21ed8d64baff431749117b2ef3e745e97e83334604051808373ffffffffffffffffffffffffffffffffffffffff1673ffffffffffffffffffffffffffffffffffffffff1681526020018281526020019250505060405180910390a1565b6000600354905090565b6000600254905090565b60004260035410801561030357506002543073ffffffffffffffffffffffffffffffffffffffff163110155b9050905600a165627a7a723058209afccd6589b8bcba40373cacac35a204b9abbf62fb8287d48bb1b4a5225f3e570029",
  "source": "pragma solidity ^0.4.2;\n\ncontract company {\n    \n    //address platForm;\n    string  id;\n    bytes32 hash;       // hash(pwd)\n    uint public goalBalance ;\n    uint public goalDate;\n    event setInvestorEvent(address investerAddress, uint256 fundValue);\n    event transferEvent();\n    \n    //initializaion\n   constructor (string memory _id, string memory _pwd, uint _goalDate,uint _goalBalance) public  {\n        //platForm = msg.sender;\n        id = _id;\n        hash = keccak256(bytes(_pwd));\n        goalDate = _goalDate;\n        goalBalance = _goalBalance;\n        \n    }\n    function() payable external  {\n    }\n    function isOwner(string memory _id, string memory _pwd) view private returns (bool){\n        return (keccak256(bytes(id)) == keccak256(bytes(_id)) && keccak256(bytes(_pwd)) ==  hash);\n    }\n    \n    function isGoal() view public returns (bool){\n        return (goalDate < now && address(this).balance >= goalBalance) ;\n    }\n    function getGoalBalance() view public returns(uint256){\n        return goalBalance;\n    }\n    function getGoalDate() view public returns(uint){\n        return goalDate;\n    }\n    function transferTo (address receiver, uint256 _amount ) public payable { \n        //require(msg.sender == platForm);\n        //require(isOwner(_id, _pwd));\n        receiver.transfer(_amount);\n        //emit transferEvent();\n    }\n    function getBalance() view public returns(uint256) {\n        return address(this).balance;\n    }\n    function setInvestor() public payable {\n        emit setInvestorEvent(msg.sender, msg.value);\n    } \n}\ncontract investor {\n    string public id;\n    //address platForm;\n    bytes32 hash;\n    \n    event Funded(address receiver, uint256 _amount);\n    event Tranfered(address receiver, uint256 _amount);\n    \n    //initializaion\n    constructor (string memory _id, string memory _pwd) public payable {\n        //platForm = msg.sender;\n        id = _id;\n        hash = keccak256(bytes(_pwd));\n    }\n    function() payable external {\n    }\n    function isOwner(string memory _id, string memory _pwd) view public returns (bool){\n        return (keccak256(bytes(id)) == keccak256(bytes(_id)) && keccak256(bytes(_pwd)) == hash);\n    }\n    function transferToC(address receiver, uint256 _amount,string memory _id, string memory _pwd ) public { \n        //require(msg.sender == platForm);\n        require(isOwner(_id, _pwd));\n        company setAddr = company(receiver);\n        setAddr.setInvestor.value(_amount)();\n        //emit Funded (receiver, _amount);\n    }\n    function transferToA(address receiver, uint256 _amount,string memory _id, string memory _pwd ) public { \n        //require(msg.sender == platForm);\n        require(isOwner(_id, _pwd));\n        receiver.transfer(_amount);\n        //emit Tranfered (receiver, _amount);\n    }\n    function getBalance() view public returns(uint256) {\n        return address(this).balance;\n    }\n    function myAddr() view public returns(address){\n        return address(this);\n    }\n}\n\n\n\n",
  "sourcePath": "/home/ubuntu/ethereumtest/contracts/contracts.sol",
  "compiler": {
    "name": "solc",
    "version": "0.4.25+commit.59dbf8f1.Emscripten.clang"
  },
  "schemaVersion": "3.0.2",
  "updatedAt": "2019-05-19T08:59:01.433Z",
  "devdoc": {
    "methods": {}
  },
  "userdoc": {
    "methods": {}
  }
}