{
  "contractName": "investor",
  "abi": [
    {
      "inputs": [
        {
          "name": "_id",
          "type": "string"
        },
        {
          "name": "_pwd",
          "type": "string"
        }
      ],
      "payable": true,
      "stateMutability": "payable",
      "type": "constructor",
      "signature": "constructor"
    },
    {
      "payable": true,
      "stateMutability": "payable",
      "type": "fallback"
    },
    {
      "anonymous": false,
      "inputs": [
        {
          "indexed": false,
          "name": "receiver",
          "type": "address"
        },
        {
          "indexed": false,
          "name": "_amount",
          "type": "uint256"
        }
      ],
      "name": "Funded",
      "type": "event",
      "signature": "0x5af8184bef8e4b45eb9f6ed7734d04da38ced226495548f46e0c8ff8d7d9a524"
    },
    {
      "anonymous": false,
      "inputs": [
        {
          "indexed": false,
          "name": "receiver",
          "type": "address"
        },
        {
          "indexed": false,
          "name": "_amount",
          "type": "uint256"
        }
      ],
      "name": "Tranfered",
      "type": "event",
      "signature": "0x5b405313c3ff429f3dfed452afea6285aab013ea10a29e56f753bad50051b7fd"
    },
    {
      "constant": false,
      "inputs": [
        {
          "name": "receiver",
          "type": "address"
        },
        {
          "name": "_amount",
          "type": "uint256"
        },
        {
          "name": "_id",
          "type": "string"
        },
        {
          "name": "_pwd",
          "type": "string"
        }
      ],
      "name": "transferToC",
      "outputs": [],
      "payable": false,
      "stateMutability": "nonpayable",
      "type": "function",
      "signature": "0x188d8021"
    },
    {
      "constant": false,
      "inputs": [
        {
          "name": "receiver",
          "type": "address"
        },
        {
          "name": "_amount",
          "type": "uint256"
        },
        {
          "name": "_id",
          "type": "string"
        },
        {
          "name": "_pwd",
          "type": "string"
        }
      ],
      "name": "transferToA",
      "outputs": [],
      "payable": false,
      "stateMutability": "nonpayable",
      "type": "function",
      "signature": "0x03ce4813"
    },
    {
      "constant": true,
      "inputs": [],
      "name": "getBalance",
      "outputs": [
        {
          "name": "",
          "type": "uint256"
        }
      ],
      "payable": false,
      "stateMutability": "view",
      "type": "function",
      "signature": "0x12065fe0"
    },
    {
      "constant": true,
      "inputs": [],
      "name": "myAddr",
      "outputs": [
        {
          "name": "",
          "type": "address"
        }
      ],
      "payable": false,
      "stateMutability": "view",
      "type": "function",
      "signature": "0xe665b266"
    }
  ],
  "bytecode": "0x60806040526040516109173803806109178339810180604052810190808051820192919060200180518201929190505050336000806101000a81548173ffffffffffffffffffffffffffffffffffffffff021916908373ffffffffffffffffffffffffffffffffffffffff16021790555081600190805190602001906100869291906100fb565b50806040518082805190602001908083835b6020831015156100bd5780518252602082019150602081019050602083039250610098565b6001836020036101000a03801982511681845116808217855250505050505090500191505060405180910390206002816000191690555050506101a0565b828054600181600116156101000203166002900490600052602060002090601f016020900481019282601f1061013c57805160ff191683800117855561016a565b8280016001018555821561016a579182015b8281111561016957825182559160200191906001019061014e565b5b509050610177919061017b565b5090565b61019d91905b80821115610199576000816000905550600101610181565b5090565b90565b610768806101af6000396000f300608060405260043610610062576000357c0100000000000000000000000000000000000000000000000000000000900463ffffffff16806303ce48131461006457806312065fe01461013d578063188d802114610168578063e665b26614610241575b005b34801561007057600080fd5b5061013b600480360381019080803573ffffffffffffffffffffffffffffffffffffffff16906020019092919080359060200190929190803590602001908201803590602001908080601f0160208091040260200160405190810160405280939291908181526020018383808284378201915050505050509192919290803590602001908201803590602001908080601f0160208091040260200160405190810160405280939291908181526020018383808284378201915050505050509192919290505050610298565b005b34801561014957600080fd5b5061015261040d565b6040518082815260200191505060405180910390f35b34801561017457600080fd5b5061023f600480360381019080803573ffffffffffffffffffffffffffffffffffffffff16906020019092919080359060200190929190803590602001908201803590602001908080601f0160208091040260200160405190810160405280939291908181526020018383808284378201915050505050509192919290803590602001908201803590602001908080601f016020809104026020016040519081016040528093929190818152602001838380828437820191505050505050919291929050505061042c565b005b34801561024d57600080fd5b506102566105dd565b604051808273ffffffffffffffffffffffffffffffffffffffff1673ffffffffffffffffffffffffffffffffffffffff16815260200191505060405180910390f35b6000809054906101000a900473ffffffffffffffffffffffffffffffffffffffff1673ffffffffffffffffffffffffffffffffffffffff163373ffffffffffffffffffffffffffffffffffffffff161415156102f357600080fd5b6102fd82826105e5565b151561030857600080fd5b8373ffffffffffffffffffffffffffffffffffffffff166108fc849081150290604051600060405180830381858888f1935050505015801561034e573d6000803e3d6000fd5b5082600360008673ffffffffffffffffffffffffffffffffffffffff1673ffffffffffffffffffffffffffffffffffffffff168152602001908152602001600020600082825401925050819055507f5b405313c3ff429f3dfed452afea6285aab013ea10a29e56f753bad50051b7fd8484604051808373ffffffffffffffffffffffffffffffffffffffff1673ffffffffffffffffffffffffffffffffffffffff1681526020018281526020019250505060405180910390a150505050565b60003073ffffffffffffffffffffffffffffffffffffffff1631905090565b60008060009054906101000a900473ffffffffffffffffffffffffffffffffffffffff1673ffffffffffffffffffffffffffffffffffffffff163373ffffffffffffffffffffffffffffffffffffffff1614151561048957600080fd5b61049383836105e5565b151561049e57600080fd5b83600360008773ffffffffffffffffffffffffffffffffffffffff1673ffffffffffffffffffffffffffffffffffffffff168152602001908152602001600020600082825401925050819055508490508073ffffffffffffffffffffffffffffffffffffffff166330d5a628856040518263ffffffff167c01000000000000000000000000000000000000000000000000000000000281526004016000604051808303818588803b15801561055257600080fd5b505af1158015610566573d6000803e3d6000fd5b50505050507f5af8184bef8e4b45eb9f6ed7734d04da38ced226495548f46e0c8ff8d7d9a5248585604051808373ffffffffffffffffffffffffffffffffffffffff1673ffffffffffffffffffffffffffffffffffffffff1681526020018281526020019250505060405180910390a15050505050565b600030905090565b6000826040518082805190602001908083835b60208310151561061d57805182526020820191506020810190506020830392506105f8565b6001836020036101000a038019825116818451168082178552505050505050905001915050604051809103902060001916600160405180828054600181600116156101000203166002900480156106ab5780601f106106895761010080835404028352918201916106ab565b820191906000526020600020905b815481529060010190602001808311610697575b5050915050604051809103902060001916148015610734575060025460001916826040518082805190602001908083835b60208310151561070157805182526020820191506020810190506020830392506106dc565b6001836020036101000a038019825116818451168082178552505050505050905001915050604051809103902060001916145b9050929150505600a165627a7a72305820c0dbaf4344ffaf5092d87ccaa8dc9318fd9490972cbbcf778228dd486360787d0029",
  "source": "\npragma solidity ^0.4.25;\n\ncontract investor {\n    \n    address platForm;  // platform account address\n    string id;\n    bytes32 hash;       // hash(pwd)\n    mapping(address=>uint) log; \n    \n    event Funded(address receiver, uint256 _amount);\n    event Tranfered(address receiver, uint256 _amount);\n    \n    //initializaion\n    constructor (string _id, string  _pwd) public payable {\n        platForm = msg.sender;\n        id = _id;\n        hash = keccak256(bytes(_pwd));\n    }\n    \n    function() public payable {\n    }\n    \n    function isOwner(string _id, string _pwd) view private returns (bool){\n        return (keccak256(bytes(id)) == keccak256(bytes(_id)) && keccak256(bytes(_pwd)) == hash);\n    }\n  \n    function transferToC(address receiver, uint256 _amount,string _id, string memory _pwd ) public { \n        require(msg.sender == platForm);\n        require(isOwner(_id, _pwd));\n        log[receiver] += _amount;\n        company setAddr = company(receiver);\n        setAddr.setInvestor.value(_amount)();\n        emit Funded (receiver, _amount);\n    }\n    \n    function transferToA(address receiver, uint256 _amount,string _id, string memory _pwd ) public { \n        require(msg.sender == platForm);\n        require(isOwner(_id, _pwd));\n        receiver.transfer(_amount);\n        log[receiver] += _amount;\n        emit Tranfered (receiver, _amount);\n        \n    }\n    \n    function getBalance() view public returns(uint256) {\n        //require(isOwner(_isOwner));\n        return address(this).balance;\n    }\n    \n    function myAddr() view public returns(address){\n        return address(this);\n    }\n}\n\ncontract company{\n    function setInvestor () public payable{}\n}\n\n\n\n",
  "sourcePath": "/home/ubuntu/ethereumtest/contracts/investor.sol",
  "compiler": {
    "name": "solc",
    "version": "0.4.25+commit.59dbf8f1.Emscripten.clang"
  },
  "schemaVersion": "3.0.2",
  "updatedAt": "2019-03-23T10:24:29.320Z",
  "devdoc": {
    "methods": {}
  },
  "userdoc": {
    "methods": {}
  }
}