{
  "contractName": "investor",
  "abi": [
    {
      "constant": true,
      "inputs": [],
      "name": "id",
      "outputs": [
        {
          "name": "",
          "type": "string"
        }
      ],
      "payable": false,
      "stateMutability": "view",
      "type": "function",
      "signature": "0xaf640d0f"
    },
    {
      "inputs": [
        {
          "name": "_id",
          "type": "string"
        },
        {
          "name": "_pwd",
          "type": "string"
        }
      ],
      "payable": true,
      "stateMutability": "payable",
      "type": "constructor",
      "signature": "constructor"
    },
    {
      "payable": true,
      "stateMutability": "payable",
      "type": "fallback"
    },
    {
      "anonymous": false,
      "inputs": [
        {
          "indexed": false,
          "name": "receiver",
          "type": "address"
        },
        {
          "indexed": false,
          "name": "_amount",
          "type": "uint256"
        }
      ],
      "name": "Funded",
      "type": "event",
      "signature": "0x5af8184bef8e4b45eb9f6ed7734d04da38ced226495548f46e0c8ff8d7d9a524"
    },
    {
      "anonymous": false,
      "inputs": [
        {
          "indexed": false,
          "name": "receiver",
          "type": "address"
        },
        {
          "indexed": false,
          "name": "_amount",
          "type": "uint256"
        }
      ],
      "name": "Tranfered",
      "type": "event",
      "signature": "0x5b405313c3ff429f3dfed452afea6285aab013ea10a29e56f753bad50051b7fd"
    },
    {
      "constant": true,
      "inputs": [
        {
          "name": "_id",
          "type": "string"
        },
        {
          "name": "_pwd",
          "type": "string"
        }
      ],
      "name": "isOwner",
      "outputs": [
        {
          "name": "",
          "type": "bool"
        }
      ],
      "payable": false,
      "stateMutability": "view",
      "type": "function",
      "signature": "0x5fbc4d22"
    },
    {
      "constant": false,
      "inputs": [
        {
          "name": "receiver",
          "type": "address"
        },
        {
          "name": "_amount",
          "type": "uint256"
        },
        {
          "name": "_id",
          "type": "string"
        },
        {
          "name": "_pwd",
          "type": "string"
        }
      ],
      "name": "transferToC",
      "outputs": [],
      "payable": false,
      "stateMutability": "nonpayable",
      "type": "function",
      "signature": "0x188d8021"
    },
    {
      "constant": false,
      "inputs": [
        {
          "name": "receiver",
          "type": "address"
        },
        {
          "name": "_amount",
          "type": "uint256"
        },
        {
          "name": "_id",
          "type": "string"
        },
        {
          "name": "_pwd",
          "type": "string"
        }
      ],
      "name": "transferToA",
      "outputs": [],
      "payable": false,
      "stateMutability": "nonpayable",
      "type": "function",
      "signature": "0x03ce4813"
    },
    {
      "constant": true,
      "inputs": [],
      "name": "getBalance",
      "outputs": [
        {
          "name": "",
          "type": "uint256"
        }
      ],
      "payable": false,
      "stateMutability": "view",
      "type": "function",
      "signature": "0x12065fe0"
    },
    {
      "constant": true,
      "inputs": [],
      "name": "myAddr",
      "outputs": [
        {
          "name": "",
          "type": "address"
        }
      ],
      "payable": false,
      "stateMutability": "view",
      "type": "function",
      "signature": "0xe665b266"
    }
  ],
  "bytecode": "0x60806040526040516108bc3803806108bc833981018060405281019080805182019291906020018051820192919050505081600090805190602001906100469291906100bb565b50806040518082805190602001908083835b60208310151561007d5780518252602082019150602081019050602083039250610058565b6001836020036101000a0380198251168184511680821785525050505050509050019150506040518091039020600181600019169055505050610160565b828054600181600116156101000203166002900490600052602060002090601f016020900481019282601f106100fc57805160ff191683800117855561012a565b8280016001018555821561012a579182015b8281111561012957825182559160200191906001019061010e565b5b509050610137919061013b565b5090565b61015d91905b80821115610159576000816000905550600101610141565b5090565b90565b61074d8061016f6000396000f300608060405260043610610078576000357c0100000000000000000000000000000000000000000000000000000000900463ffffffff16806303ce48131461007a57806312065fe014610153578063188d80211461017e5780635fbc4d2214610257578063af640d0f1461031e578063e665b266146103ae575b005b34801561008657600080fd5b50610151600480360381019080803573ffffffffffffffffffffffffffffffffffffffff16906020019092919080359060200190929190803590602001908201803590602001908080601f0160208091040260200160405190810160405280939291908181526020018383808284378201915050505050509192919290803590602001908201803590602001908080601f0160208091040260200160405190810160405280939291908181526020018383808284378201915050505050509192919290505050610405565b005b34801561015f57600080fd5b50610168610467565b6040518082815260200191505060405180910390f35b34801561018a57600080fd5b50610255600480360381019080803573ffffffffffffffffffffffffffffffffffffffff16906020019092919080359060200190929190803590602001908201803590602001908080601f0160208091040260200160405190810160405280939291908181526020018383808284378201915050505050509192919290803590602001908201803590602001908080601f0160208091040260200160405190810160405280939291908181526020018383808284378201915050505050509192919290505050610486565b005b34801561026357600080fd5b50610304600480360381019080803590602001908201803590602001908080601f0160208091040260200160405190810160405280939291908181526020018383808284378201915050505050509192919290803590602001908201803590602001908080601f0160208091040260200160405190810160405280939291908181526020018383808284378201915050505050509192919290505050610524565b604051808215151515815260200191505060405180910390f35b34801561032a57600080fd5b5061033361067b565b6040518080602001828103825283818151815260200191508051906020019080838360005b83811015610373578082015181840152602081019050610358565b50505050905090810190601f1680156103a05780820380516001836020036101000a031916815260200191505b509250505060405180910390f35b3480156103ba57600080fd5b506103c3610719565b604051808273ffffffffffffffffffffffffffffffffffffffff1673ffffffffffffffffffffffffffffffffffffffff16815260200191505060405180910390f35b61040f8282610524565b151561041a57600080fd5b8373ffffffffffffffffffffffffffffffffffffffff166108fc849081150290604051600060405180830381858888f19350505050158015610460573d6000803e3d6000fd5b5050505050565b60003073ffffffffffffffffffffffffffffffffffffffff1631905090565b60006104928383610524565b151561049d57600080fd5b8490508073ffffffffffffffffffffffffffffffffffffffff166330d5a628856040518263ffffffff167c01000000000000000000000000000000000000000000000000000000000281526004016000604051808303818588803b15801561050457600080fd5b505af1158015610518573d6000803e3d6000fd5b50505050505050505050565b6000826040518082805190602001908083835b60208310151561055c5780518252602082019150602081019050602083039250610537565b6001836020036101000a038019825116818451168082178552505050505050905001915050604051809103902060001916600060405180828054600181600116156101000203166002900480156105ea5780601f106105c85761010080835404028352918201916105ea565b820191906000526020600020905b8154815290600101906020018083116105d6575b5050915050604051809103902060001916148015610673575060015460001916826040518082805190602001908083835b602083101515610640578051825260208201915060208101905060208303925061061b565b6001836020036101000a038019825116818451168082178552505050505050905001915050604051809103902060001916145b905092915050565b60008054600181600116156101000203166002900480601f0160208091040260200160405190810160405280929190818152602001828054600181600116156101000203166002900480156107115780601f106106e657610100808354040283529160200191610711565b820191906000526020600020905b8154815290600101906020018083116106f457829003601f168201915b505050505081565b6000309050905600a165627a7a72305820c5b84a2f94253471d6bb1496a9aed8ef483dc99a4616973c763c440d6680c4320029",
  "source": "pragma solidity ^0.4.2;\n\ncontract company {\n    \n    //address platForm;\n    string  id;\n    bytes32 hash;       // hash(pwd)\n    uint public goalBalance ;\n    uint public goalDate;\n    event setInvestorEvent(address investerAddress, uint256 fundValue);\n    event transferEvent();\n    \n    //initializaion\n   constructor (string memory _id, string memory _pwd, uint _goalDate,uint _goalBalance) public  {\n        //platForm = msg.sender;\n        id = _id;\n        hash = keccak256(bytes(_pwd));\n        goalDate = _goalDate;\n        goalBalance = _goalBalance;\n        \n    }\n    function() payable external  {\n    }\n    function isOwner(string memory _id, string memory _pwd) view private returns (bool){\n        return (keccak256(bytes(id)) == keccak256(bytes(_id)) && keccak256(bytes(_pwd)) ==  hash);\n    }\n    \n    function isGoal() view public returns (bool){\n        return (goalDate < now && address(this).balance >= goalBalance) ;\n    }\n    function getGoalBalance() view public returns(uint256){\n        return goalBalance;\n    }\n    function getGoalDate() view public returns(uint){\n        return goalDate;\n    }\n    function transferTo (address receiver, uint256 _amount ) public payable { \n        //require(msg.sender == platForm);\n        //require(isOwner(_id, _pwd));\n        receiver.transfer(_amount);\n        //emit transferEvent();\n    }\n    function getBalance() view public returns(uint256) {\n        return address(this).balance;\n    }\n    function setInvestor() public payable {\n        emit setInvestorEvent(msg.sender, msg.value);\n    } \n}\ncontract investor {\n    string public id;\n    //address platForm;\n    bytes32 hash;\n    \n    event Funded(address receiver, uint256 _amount);\n    event Tranfered(address receiver, uint256 _amount);\n    \n    //initializaion\n    constructor (string memory _id, string memory _pwd) public payable {\n        //platForm = msg.sender;\n        id = _id;\n        hash = keccak256(bytes(_pwd));\n    }\n    function() payable external {\n    }\n    function isOwner(string memory _id, string memory _pwd) view public returns (bool){\n        return (keccak256(bytes(id)) == keccak256(bytes(_id)) && keccak256(bytes(_pwd)) == hash);\n    }\n    function transferToC(address receiver, uint256 _amount,string memory _id, string memory _pwd ) public { \n        //require(msg.sender == platForm);\n        require(isOwner(_id, _pwd));\n        company setAddr = company(receiver);\n        setAddr.setInvestor.value(_amount)();\n        //emit Funded (receiver, _amount);\n    }\n    function transferToA(address receiver, uint256 _amount,string memory _id, string memory _pwd ) public { \n        //require(msg.sender == platForm);\n        require(isOwner(_id, _pwd));\n        receiver.transfer(_amount);\n        //emit Tranfered (receiver, _amount);\n    }\n    function getBalance() view public returns(uint256) {\n        return address(this).balance;\n    }\n    function myAddr() view public returns(address){\n        return address(this);\n    }\n}\n\n\n\n",
  "sourcePath": "/home/ubuntu/ethereumtest/contracts/contracts.sol",
  "compiler": {
    "name": "solc",
    "version": "0.4.25+commit.59dbf8f1.Emscripten.clang"
  },
  "schemaVersion": "3.0.2",
  "updatedAt": "2019-05-19T08:59:01.438Z",
  "devdoc": {
    "methods": {}
  },
  "userdoc": {
    "methods": {}
  }
}