{
  "contractName": "investor",
  "abi": [
    {
      "constant": true,
      "inputs": [],
      "name": "id",
      "outputs": [
        {
          "name": "",
          "type": "string"
        }
      ],
      "payable": false,
      "stateMutability": "view",
      "type": "function",
      "signature": "0xaf640d0f"
    },
    {
      "inputs": [
        {
          "name": "_id",
          "type": "string"
        },
        {
          "name": "_pwd",
          "type": "string"
        }
      ],
      "payable": true,
      "stateMutability": "payable",
      "type": "constructor",
      "signature": "constructor"
    },
    {
      "payable": true,
      "stateMutability": "payable",
      "type": "fallback"
    },
    {
      "anonymous": false,
      "inputs": [
        {
          "indexed": false,
          "name": "receiver",
          "type": "address"
        },
        {
          "indexed": false,
          "name": "_amount",
          "type": "uint256"
        }
      ],
      "name": "Funded",
      "type": "event",
      "signature": "0x5af8184bef8e4b45eb9f6ed7734d04da38ced226495548f46e0c8ff8d7d9a524"
    },
    {
      "anonymous": false,
      "inputs": [
        {
          "indexed": false,
          "name": "receiver",
          "type": "address"
        },
        {
          "indexed": false,
          "name": "_amount",
          "type": "uint256"
        }
      ],
      "name": "Tranfered",
      "type": "event",
      "signature": "0x5b405313c3ff429f3dfed452afea6285aab013ea10a29e56f753bad50051b7fd"
    },
    {
      "constant": true,
      "inputs": [],
      "name": "getID",
      "outputs": [
        {
          "name": "",
          "type": "string"
        }
      ],
      "payable": false,
      "stateMutability": "view",
      "type": "function",
      "signature": "0xab9dbd07"
    },
    {
      "constant": false,
      "inputs": [
        {
          "name": "receiver",
          "type": "address"
        },
        {
          "name": "_amount",
          "type": "uint256"
        },
        {
          "name": "_id",
          "type": "string"
        },
        {
          "name": "_pwd",
          "type": "string"
        }
      ],
      "name": "transferToC",
      "outputs": [],
      "payable": false,
      "stateMutability": "nonpayable",
      "type": "function",
      "signature": "0x188d8021"
    },
    {
      "constant": false,
      "inputs": [
        {
          "name": "receiver",
          "type": "address"
        },
        {
          "name": "_amount",
          "type": "uint256"
        },
        {
          "name": "_id",
          "type": "string"
        },
        {
          "name": "_pwd",
          "type": "string"
        }
      ],
      "name": "transferToA",
      "outputs": [],
      "payable": false,
      "stateMutability": "nonpayable",
      "type": "function",
      "signature": "0x03ce4813"
    },
    {
      "constant": true,
      "inputs": [],
      "name": "getBalance",
      "outputs": [
        {
          "name": "",
          "type": "uint256"
        }
      ],
      "payable": false,
      "stateMutability": "view",
      "type": "function",
      "signature": "0x12065fe0"
    },
    {
      "constant": true,
      "inputs": [],
      "name": "myAddr",
      "outputs": [
        {
          "name": "",
          "type": "address"
        }
      ],
      "payable": false,
      "stateMutability": "view",
      "type": "function",
      "signature": "0xe665b266"
    }
  ],
  "bytecode": "0x6080604052604051610b8d380380610b8d8339810180604052810190808051820192919060200180518201929190505050336000806101000a81548173ffffffffffffffffffffffffffffffffffffffff021916908373ffffffffffffffffffffffffffffffffffffffff16021790555081600190805190602001906100869291906100fb565b50806040518082805190602001908083835b6020831015156100bd5780518252602082019150602081019050602083039250610098565b6001836020036101000a03801982511681845116808217855250505050505090500191505060405180910390206002816000191690555050506101a0565b828054600181600116156101000203166002900490600052602060002090601f016020900481019282601f1061013c57805160ff191683800117855561016a565b8280016001018555821561016a579182015b8281111561016957825182559160200191906001019061014e565b5b509050610177919061017b565b5090565b61019d91905b80821115610199576000816000905550600101610181565b5090565b90565b6109de806101af6000396000f300608060405260043610610078576000357c0100000000000000000000000000000000000000000000000000000000900463ffffffff16806303ce48131461007a57806312065fe014610153578063188d80211461017e578063ab9dbd0714610257578063af640d0f146102e7578063e665b26614610377575b005b34801561008657600080fd5b50610151600480360381019080803573ffffffffffffffffffffffffffffffffffffffff16906020019092919080359060200190929190803590602001908201803590602001908080601f0160208091040260200160405190810160405280939291908181526020018383808284378201915050505050509192919290803590602001908201803590602001908080601f01602080910402602001604051908101604052809392919081815260200183838082843782019150505050505091929192905050506103ce565b005b34801561015f57600080fd5b50610168610543565b6040518082815260200191505060405180910390f35b34801561018a57600080fd5b50610255600480360381019080803573ffffffffffffffffffffffffffffffffffffffff16906020019092919080359060200190929190803590602001908201803590602001908080601f0160208091040260200160405190810160405280939291908181526020018383808284378201915050505050509192919290803590602001908201803590602001908080601f0160208091040260200160405190810160405280939291908181526020018383808284378201915050505050509192919290505050610562565b005b34801561026357600080fd5b5061026c610713565b6040518080602001828103825283818151815260200191508051906020019080838360005b838110156102ac578082015181840152602081019050610291565b50505050905090810190601f1680156102d95780820380516001836020036101000a031916815260200191505b509250505060405180910390f35b3480156102f357600080fd5b506102fc6107b5565b6040518080602001828103825283818151815260200191508051906020019080838360005b8381101561033c578082015181840152602081019050610321565b50505050905090810190601f1680156103695780820380516001836020036101000a031916815260200191505b509250505060405180910390f35b34801561038357600080fd5b5061038c610853565b604051808273ffffffffffffffffffffffffffffffffffffffff1673ffffffffffffffffffffffffffffffffffffffff16815260200191505060405180910390f35b6000809054906101000a900473ffffffffffffffffffffffffffffffffffffffff1673ffffffffffffffffffffffffffffffffffffffff163373ffffffffffffffffffffffffffffffffffffffff1614151561042957600080fd5b610433828261085b565b151561043e57600080fd5b8373ffffffffffffffffffffffffffffffffffffffff166108fc849081150290604051600060405180830381858888f19350505050158015610484573d6000803e3d6000fd5b5082600360008673ffffffffffffffffffffffffffffffffffffffff1673ffffffffffffffffffffffffffffffffffffffff168152602001908152602001600020600082825401925050819055507f5b405313c3ff429f3dfed452afea6285aab013ea10a29e56f753bad50051b7fd8484604051808373ffffffffffffffffffffffffffffffffffffffff1673ffffffffffffffffffffffffffffffffffffffff1681526020018281526020019250505060405180910390a150505050565b60003073ffffffffffffffffffffffffffffffffffffffff1631905090565b60008060009054906101000a900473ffffffffffffffffffffffffffffffffffffffff1673ffffffffffffffffffffffffffffffffffffffff163373ffffffffffffffffffffffffffffffffffffffff161415156105bf57600080fd5b6105c9838361085b565b15156105d457600080fd5b83600360008773ffffffffffffffffffffffffffffffffffffffff1673ffffffffffffffffffffffffffffffffffffffff168152602001908152602001600020600082825401925050819055508490508073ffffffffffffffffffffffffffffffffffffffff166330d5a628856040518263ffffffff167c01000000000000000000000000000000000000000000000000000000000281526004016000604051808303818588803b15801561068857600080fd5b505af115801561069c573d6000803e3d6000fd5b50505050507f5af8184bef8e4b45eb9f6ed7734d04da38ced226495548f46e0c8ff8d7d9a5248585604051808373ffffffffffffffffffffffffffffffffffffffff1673ffffffffffffffffffffffffffffffffffffffff1681526020018281526020019250505060405180910390a15050505050565b606060018054600181600116156101000203166002900480601f0160208091040260200160405190810160405280929190818152602001828054600181600116156101000203166002900480156107ab5780601f10610780576101008083540402835291602001916107ab565b820191906000526020600020905b81548152906001019060200180831161078e57829003601f168201915b5050505050905090565b60018054600181600116156101000203166002900480601f01602080910402602001604051908101604052809291908181526020018280546001816001161561010002031660029004801561084b5780601f106108205761010080835404028352916020019161084b565b820191906000526020600020905b81548152906001019060200180831161082e57829003601f168201915b505050505081565b600030905090565b6000826040518082805190602001908083835b602083101515610893578051825260208201915060208101905060208303925061086e565b6001836020036101000a038019825116818451168082178552505050505050905001915050604051809103902060001916600160405180828054600181600116156101000203166002900480156109215780601f106108ff576101008083540402835291820191610921565b820191906000526020600020905b81548152906001019060200180831161090d575b50509150506040518091039020600019161480156109aa575060025460001916826040518082805190602001908083835b6020831015156109775780518252602082019150602081019050602083039250610952565b6001836020036101000a038019825116818451168082178552505050505050905001915050604051809103902060001916145b9050929150505600a165627a7a723058200b4e955d6ae074c63191449f4f7d26e3a22b280060f4d17a357875e7d068cb7f0029",
  "source": "\npragma solidity ^0.4.25;\n\ncontract investor {\n    \n    address platForm;  // platform account address\n    string public id;\n    bytes32 hash;       // hash(pwd)\n    mapping(address=>uint) log; \n    \n    event Funded(address receiver, uint256 _amount);\n    event Tranfered(address receiver, uint256 _amount);\n    \n    //initializaion\n    constructor (string _id, string  _pwd) public payable {\n        platForm = msg.sender;\n        id = _id;\n        hash = keccak256(bytes(_pwd));\n    }\n    \n    function() public payable {\n    }\n    \n    function isOwner(string _id, string _pwd) view private returns (bool){\n        return (keccak256(bytes(id)) == keccak256(bytes(_id)) && keccak256(bytes(_pwd)) == hash);\n    }\n    function getID() view public returns (string){\n        return id ;\n    }\n  \n    function transferToC(address receiver, uint256 _amount,string _id, string memory _pwd ) public { \n        require(msg.sender == platForm);\n        require(isOwner(_id, _pwd));\n        log[receiver] += _amount;\n        company setAddr = company(receiver);\n        setAddr.setInvestor.value(_amount)();\n        emit Funded (receiver, _amount);\n    }\n    \n    function transferToA(address receiver, uint256 _amount,string _id, string memory _pwd ) public { \n        require(msg.sender == platForm);\n        require(isOwner(_id, _pwd));\n        receiver.transfer(_amount);\n        log[receiver] += _amount;\n        emit Tranfered (receiver, _amount);\n        \n    }\n    \n    function getBalance() view public returns(uint256) {\n        //require(isOwner(_isOwner));\n        return address(this).balance;\n    }\n    \n    function myAddr() view public returns(address){\n        return address(this);\n    }\n}\n\ncontract company{\n    function setInvestor () public payable{}\n}\n\n\n\n\n",
  "sourcePath": "/home/ubuntu/ethereumtest/contracts/investor.sol",
  "compiler": {
    "name": "solc",
    "version": "0.4.25+commit.59dbf8f1.Emscripten.clang"
  },
  "schemaVersion": "3.0.2",
  "updatedAt": "2019-04-13T09:38:35.362Z",
  "devdoc": {
    "methods": {}
  },
  "userdoc": {
    "methods": {}
  }
}