{
  "contractName": "investor",
  "abi": [
    {
      "constant": true,
      "inputs": [],
      "name": "id",
      "outputs": [
        {
          "name": "",
          "type": "string"
        }
      ],
      "payable": false,
      "stateMutability": "view",
      "type": "function",
      "signature": "0xaf640d0f"
    },
    {
      "inputs": [
        {
          "name": "_id",
          "type": "string"
        },
        {
          "name": "_pwd",
          "type": "string"
        }
      ],
      "payable": true,
      "stateMutability": "payable",
      "type": "constructor",
      "signature": "constructor"
    },
    {
      "payable": true,
      "stateMutability": "payable",
      "type": "fallback"
    },
    {
      "anonymous": false,
      "inputs": [
        {
          "indexed": false,
          "name": "receiver",
          "type": "address"
        },
        {
          "indexed": false,
          "name": "_amount",
          "type": "uint256"
        }
      ],
      "name": "Funded",
      "type": "event",
      "signature": "0x5af8184bef8e4b45eb9f6ed7734d04da38ced226495548f46e0c8ff8d7d9a524"
    },
    {
      "anonymous": false,
      "inputs": [
        {
          "indexed": false,
          "name": "receiver",
          "type": "address"
        },
        {
          "indexed": false,
          "name": "_amount",
          "type": "uint256"
        }
      ],
      "name": "Tranfered",
      "type": "event",
      "signature": "0x5b405313c3ff429f3dfed452afea6285aab013ea10a29e56f753bad50051b7fd"
    },
    {
      "anonymous": false,
      "inputs": [
        {
          "indexed": false,
          "name": "_amount",
          "type": "uint256"
        }
      ],
      "name": "ref",
      "type": "event",
      "signature": "0xeaf737a48b9948b4a035f28fafed5a9e112a2f6b978c28b0b537da280c0bb2f8"
    },
    {
      "constant": true,
      "inputs": [
        {
          "name": "_id",
          "type": "string"
        },
        {
          "name": "_pwd",
          "type": "string"
        }
      ],
      "name": "isOwner",
      "outputs": [
        {
          "name": "",
          "type": "bool"
        }
      ],
      "payable": false,
      "stateMutability": "view",
      "type": "function",
      "signature": "0x5fbc4d22"
    },
    {
      "constant": false,
      "inputs": [
        {
          "name": "receiver",
          "type": "address"
        },
        {
          "name": "_amount",
          "type": "uint256"
        },
        {
          "name": "_id",
          "type": "string"
        },
        {
          "name": "_pwd",
          "type": "string"
        }
      ],
      "name": "transferToC",
      "outputs": [],
      "payable": false,
      "stateMutability": "nonpayable",
      "type": "function",
      "signature": "0x188d8021"
    },
    {
      "constant": false,
      "inputs": [
        {
          "name": "receiver",
          "type": "address"
        },
        {
          "name": "_amount",
          "type": "uint256"
        },
        {
          "name": "_id",
          "type": "string"
        },
        {
          "name": "_pwd",
          "type": "string"
        }
      ],
      "name": "transferToA",
      "outputs": [],
      "payable": false,
      "stateMutability": "nonpayable",
      "type": "function",
      "signature": "0x03ce4813"
    },
    {
      "constant": true,
      "inputs": [],
      "name": "getBalance",
      "outputs": [
        {
          "name": "",
          "type": "uint256"
        }
      ],
      "payable": false,
      "stateMutability": "view",
      "type": "function",
      "signature": "0x12065fe0"
    },
    {
      "constant": true,
      "inputs": [],
      "name": "myAddr",
      "outputs": [
        {
          "name": "",
          "type": "address"
        }
      ],
      "payable": false,
      "stateMutability": "view",
      "type": "function",
      "signature": "0xe665b266"
    },
    {
      "constant": false,
      "inputs": [],
      "name": "refund",
      "outputs": [],
      "payable": true,
      "stateMutability": "payable",
      "type": "function",
      "signature": "0x590e1ae3"
    }
  ],
  "bytecode": "0x6080604052604051610b70380380610b708339810180604052810190808051820192919060200180518201929190505050336000806101000a81548173ffffffffffffffffffffffffffffffffffffffff021916908373ffffffffffffffffffffffffffffffffffffffff16021790555081600190805190602001906100869291906100fb565b50806040518082805190602001908083835b6020831015156100bd5780518252602082019150602081019050602083039250610098565b6001836020036101000a03801982511681845116808217855250505050505090500191505060405180910390206002816000191690555050506101a0565b828054600181600116156101000203166002900490600052602060002090601f016020900481019282601f1061013c57805160ff191683800117855561016a565b8280016001018555821561016a579182015b8281111561016957825182559160200191906001019061014e565b5b509050610177919061017b565b5090565b61019d91905b80821115610199576000816000905550600101610181565b5090565b90565b6109c1806101af6000396000f300608060405260043610610083576000357c0100000000000000000000000000000000000000000000000000000000900463ffffffff16806303ce48131461008557806312065fe01461015e578063188d802114610189578063590e1ae3146102625780635fbc4d221461026c578063af640d0f14610333578063e665b266146103c3575b005b34801561009157600080fd5b5061015c600480360381019080803573ffffffffffffffffffffffffffffffffffffffff16906020019092919080359060200190929190803590602001908201803590602001908080601f0160208091040260200160405190810160405280939291908181526020018383808284378201915050505050509192919290803590602001908201803590602001908080601f016020809104026020016040519081016040528093929190818152602001838380828437820191505050505050919291929050505061041a565b005b34801561016a57600080fd5b5061017361058f565b6040518082815260200191505060405180910390f35b34801561019557600080fd5b50610260600480360381019080803573ffffffffffffffffffffffffffffffffffffffff16906020019092919080359060200190929190803590602001908201803590602001908080601f0160208091040260200160405190810160405280939291908181526020018383808284378201915050505050509192919290803590602001908201803590602001908080601f01602080910402602001604051908101604052809392919081815260200183838082843782019150505050505091929192905050506105ae565b005b61026a61075f565b005b34801561027857600080fd5b50610319600480360381019080803590602001908201803590602001908080601f0160208091040260200160405190810160405280939291908181526020018383808284378201915050505050509192919290803590602001908201803590602001908080601f0160208091040260200160405190810160405280939291908181526020018383808284378201915050505050509192919290505050610798565b604051808215151515815260200191505060405180910390f35b34801561033f57600080fd5b506103486108ef565b6040518080602001828103825283818151815260200191508051906020019080838360005b8381101561038857808201518184015260208101905061036d565b50505050905090810190601f1680156103b55780820380516001836020036101000a031916815260200191505b509250505060405180910390f35b3480156103cf57600080fd5b506103d861098d565b604051808273ffffffffffffffffffffffffffffffffffffffff1673ffffffffffffffffffffffffffffffffffffffff16815260200191505060405180910390f35b6000809054906101000a900473ffffffffffffffffffffffffffffffffffffffff1673ffffffffffffffffffffffffffffffffffffffff163373ffffffffffffffffffffffffffffffffffffffff1614151561047557600080fd5b61047f8282610798565b151561048a57600080fd5b8373ffffffffffffffffffffffffffffffffffffffff166108fc849081150290604051600060405180830381858888f193505050501580156104d0573d6000803e3d6000fd5b5082600360008673ffffffffffffffffffffffffffffffffffffffff1673ffffffffffffffffffffffffffffffffffffffff168152602001908152602001600020600082825401925050819055507f5b405313c3ff429f3dfed452afea6285aab013ea10a29e56f753bad50051b7fd8484604051808373ffffffffffffffffffffffffffffffffffffffff1673ffffffffffffffffffffffffffffffffffffffff1681526020018281526020019250505060405180910390a150505050565b60003073ffffffffffffffffffffffffffffffffffffffff1631905090565b60008060009054906101000a900473ffffffffffffffffffffffffffffffffffffffff1673ffffffffffffffffffffffffffffffffffffffff163373ffffffffffffffffffffffffffffffffffffffff1614151561060b57600080fd5b6106158383610798565b151561062057600080fd5b83600360008773ffffffffffffffffffffffffffffffffffffffff1673ffffffffffffffffffffffffffffffffffffffff168152602001908152602001600020600082825401925050819055508490508073ffffffffffffffffffffffffffffffffffffffff166330d5a628856040518263ffffffff167c01000000000000000000000000000000000000000000000000000000000281526004016000604051808303818588803b1580156106d457600080fd5b505af11580156106e8573d6000803e3d6000fd5b50505050507f5af8184bef8e4b45eb9f6ed7734d04da38ced226495548f46e0c8ff8d7d9a5248585604051808373ffffffffffffffffffffffffffffffffffffffff1673ffffffffffffffffffffffffffffffffffffffff1681526020018281526020019250505060405180910390a15050505050565b7feaf737a48b9948b4a035f28fafed5a9e112a2f6b978c28b0b537da280c0bb2f8346040518082815260200191505060405180910390a1565b6000826040518082805190602001908083835b6020831015156107d057805182526020820191506020810190506020830392506107ab565b6001836020036101000a0380198251168184511680821785525050505050509050019150506040518091039020600019166001604051808280546001816001161561010002031660029004801561085e5780601f1061083c57610100808354040283529182019161085e565b820191906000526020600020905b81548152906001019060200180831161084a575b50509150506040518091039020600019161480156108e7575060025460001916826040518082805190602001908083835b6020831015156108b4578051825260208201915060208101905060208303925061088f565b6001836020036101000a038019825116818451168082178552505050505050905001915050604051809103902060001916145b905092915050565b60018054600181600116156101000203166002900480601f0160208091040260200160405190810160405280929190818152602001828054600181600116156101000203166002900480156109855780601f1061095a57610100808354040283529160200191610985565b820191906000526020600020905b81548152906001019060200180831161096857829003601f168201915b505050505081565b6000309050905600a165627a7a723058203b2a3ebe6700afe316a8dd392f4bf9c9d5462d80908f2141e24592d975b7cf930029",
  "source": "pragma solidity ^0.4.2;\n\ncontract company {\n    \n    address platForm;\n    string  id;\n    bytes32 hash;       // hash(pwd)\n    uint public goalBalance ;\n    uint public goalDate;\n    mapping(address=>uint) public Outlog;\n    address[] public InvestAddr;\n    \n    event setInvestorEvent(address investerAddress, uint256 fundValue);\n    event refundEvent(address refundAddr, uint256 refundValue);\n    event transferEvent();\n    \n    //initializaion\n   constructor (string memory _id, string memory _pwd, uint _goalDate,uint _goalBalance) public  {\n        platForm = msg.sender;\n        id = _id;\n        hash = keccak256(bytes(_pwd));\n        goalDate = _goalDate;\n        goalBalance = _goalBalance;\n        \n    }\n    \n    function() payable external  {\n        refundTo();\n    }\n  \n    function isOwner(string memory _id, string memory _pwd) view private returns (bool){\n        return (keccak256(bytes(id)) == keccak256(bytes(_id)) && keccak256(bytes(_pwd)) ==  hash);\n    }\n    \n    function isGoal() view public returns (bool){\n        return (goalDate < now && address(this).balance >= goalBalance) ;\n    }\n    function getGoalBalance() view public returns(uint256){\n        return goalBalance;\n    }\n    function getGoalDate() view public returns(uint){\n        return goalDate;\n    }\n    \n    function transferTo (address receiver, uint256 _amount ) public payable { \n        require(msg.sender == platForm);\n        //require(isOwner(_id, _pwd));\n        //require(isGoal());\n        receiver.transfer(_amount);\n        emit transferEvent();\n    }\n\n    \n    function getBalance() view public returns(uint256) {\n        return address(this).balance;\n    }\n   \n    // someone must call. \n    function refundTo() public payable{\n        //require(!isGoal());\n        address localAddr ;\n        uint256 localAmount;\n        for(uint256 i = 0 ; i < InvestAddr.length ; i++){\n            //InvestAddr[i].transfer(Outlog[InvestAddr[i]]);\n            //investor ref = investor(localAddr);\n            //ref.getRefund.value(localAmount);\n            \n            investor invest = investor(InvestAddr[i]);\n            invest.refund.value(Outlog[InvestAddr[i]])();\n            emit refundEvent(localAddr,localAmount);\n        }\n    }\n    \n    // only investor contract can call this function.  \n    function setInvestor() public payable {\n        Outlog[msg.sender] += msg.value;\n        InvestAddr.push(msg.sender);\n        emit setInvestorEvent(msg.sender, msg.value);\n        \n    } \n}\n\n\n\ncontract investor {\n    \n    address platForm;  // platform account address\n    string public id;\n    bytes32 hash;       // hash(pwd)\n    mapping(address=>uint) log; \n    \n    event Funded(address receiver, uint256 _amount);\n    event Tranfered(address receiver, uint256 _amount);\n    event ref(uint256 _amount);\n    //initializaion\n    constructor (string memory _id, string memory _pwd) public payable {\n        platForm = msg.sender;\n        id = _id;\n        hash = keccak256(bytes(_pwd));\n    }\n    \n    function() payable external {\n    }\n    \n    function isOwner(string memory _id, string memory _pwd) view public returns (bool){\n        return (keccak256(bytes(id)) == keccak256(bytes(_id)) && keccak256(bytes(_pwd)) == hash);\n    }\n  \n    function transferToC(address receiver, uint256 _amount,string memory _id, string memory _pwd ) public { \n        require(msg.sender == platForm);\n        require(isOwner(_id, _pwd));\n        log[receiver] += _amount;\n        company setAddr = company(receiver);\n        setAddr.setInvestor.value(_amount)();\n        emit Funded (receiver, _amount);\n    }\n    \n    function transferToA(address receiver, uint256 _amount,string memory _id, string memory _pwd ) public { \n        require(msg.sender == platForm);\n        require(isOwner(_id, _pwd));\n        receiver.transfer(_amount);\n        log[receiver] += _amount;\n        emit Tranfered (receiver, _amount);\n        \n    }\n    \n    function getBalance() view public returns(uint256) {\n        //require(isOwner(_isOwner));\n        return address(this).balance;\n    }\n    \n    function myAddr() view public returns(address){\n        return address(this);\n    }\n    function refund() public payable{\n        emit ref(msg.value);\n    }\n}\n\n\n\n",
  "sourcePath": "/home/ubuntu/ethereumtest/contracts/contracts.sol",
  "compiler": {
    "name": "solc",
    "version": "0.4.25+commit.59dbf8f1.Emscripten.clang"
  },
  "schemaVersion": "3.0.2",
  "updatedAt": "2019-05-14T16:46:48.619Z",
  "devdoc": {
    "methods": {}
  },
  "userdoc": {
    "methods": {}
  }
}